:020000040800F2
:10000000A0080020C10100084F140008C512000814
:100010004D140008F1020008F31800080000000069
:100020000000000000000000000000005314000861
:10003000F3020008000000005114000855140008E5
:10004000DB010008DB010008DB010008DB01000820
:10005000DB010008DB010008DB010008DB01000810
:10006000DB010008DB010008DB010008DB01000800
:10007000DB010008DB010008DB010008DB010008F0
:10008000DB010008DB010008DB010008DB010008E0
:10009000DB010008DB010008DB010008DB010008D0
:1000A000DB010008DB010008DB010008DB010008C0
:1000B000DB010008DB010008DB010008DB010008B0
:1000C000DB010008DB010008DB010008DB010008A0
:1000D000DB010008DB010008DB010008DB01000890
:1000E000DB010008DB010008DB010008DB01000880
:1000F000DB010008DB010008DB010008DB01000870
:10010000DB010008DB010008DB010008DB0100085F
:10011000DB010008DB010008DB010008DB0100084F
:10012000DB010008DB010008DB010008DB0100083F
:10013000DB010008DB010008DB010008DB0100082F
:10014000DB010008DB010008DB010008DB0100081F
:10015000DB010008DB010008DB010008DB0100080F
:10016000DB010008DB010008DB010008DB010008FF
:10017000DB010008DB010008DB01000800000000D3
:10018000DB010008DB010008DB010008DB010008DF
:10019000DB010008DB010008DB010008DB010008CF
:1001A000DB010008DB010008DB010008DFF80CD0F0
:1001B00000F08CF80048004735190008A00800201E
:1001C0000648804706480047FEE7FEE7FEE7FEE7F1
:1001D000FEE7FEE7FEE7FEE7FEE7FEE7E1140008C4
:1001E000AD0100082DE9F05F0546002092469B46D0
:1001F00088460646814640241BE02846414647463D
:10020000224600F053F853465A46C01A914110D383
:1002100011461846224600F03AF82D1A67EB0108FD
:100220004F4622460120002100F031F817EB00096B
:100230004E41201EA4F10104DFDC484631462A4627
:100240004346BDE8F09F40EA01039B0703D009E065
:1002500008C9121F08C0042AFAD203E011F8013BB2
:1002600000F8013B521EF9D27047D2B201E000F80B
:10027000012B491EFBD270470022F6E710B513464A
:100280000A4604461946FFF7F0FF204610BD202A13
:1002900004DB203A00FA02F1002070479140C2F1DD
:1002A000200320FA03F3194390407047202A04DB0F
:1002B000203A21FA02F00021704721FA02F3D040DF
:1002C000C2F120029140084319467047064C074D81
:1002D00006E0E06840F0010394E807009847103416
:1002E000AC42F6D3FFF766FF8C190008AC19000882
:1002F000FEE770472DE9F041044621B14FF400605C
:10030000E060C000A060E0690025002861D02846B8
:100310002368402619683A4A1140D4E902273A4333
:10032000024342F400700843186020680768012007
:1003300000F072F820680760206846602068466810
:10034000012000F069F82068466020688560206818
:10035000C560216888694FF64172104040F0800006
:10036000886120688669012000F056F8206886615F
:100370002068C5612068C569012000F04DF820683B
:10038000C561226802F5805290691E4908401E49E5
:1003900001439161206800F580508569012000F0DB
:1003A0003BF8206800F5805085612068174900F50A
:1003B00080500160206800F580500568012000F041
:1003C0002BF8206800F580500560A069012803D053
:1003D00009E04FF480609BE7206800F58050C16918
:1003E0000B4A1143C16160690A4982880A64027834
:1003F000D0F8010042EA00204864BDE8F081000026
:100400000F8120FF233FDEF8040020028020C1027C
:10041000400001000080024070B5044600F0F2FA8E
:100420000546601C02D004480078044400F0EAFA53
:10043000401BA042FAD370BD000000202DE9FC470C
:100440004FF000060400B146009603D094F8440033
:1004500018B107E00120BDE8FC8784F8456020461C
:1004600000F0E2F86648016841F4804101600068EC
:1004700000F4804001906348016821F400010160AC
:100480000168226A11430160206800F5805001680C
:1004900041F00101016000F0B5FA05464FF4FA772A
:1004A00009E000BF00F0AEFA401BB84203D90320B8
:1004B00004F8440F67E0206800F580500068C0072A
:1004C000F0D12068006920F01C0500F07BFC4E494B
:1004D0004E4A0144914202D245F0080516E04C49CB
:1004E0004C4A0144914202D245F00C050EE04A49C3
:1004F0004A4A0144914209D349490844494988423A
:1005000002D245F0040501E045F0100520680561C0
:100510004FF400420021204600F048F90125A8BB15
:10052000FF20FFF779FF606888B300F06BFA804620
:1005300041F288376A460121204600F0F5F800F0C4
:1005400061FAA0EB0800B84217D800984007F1D52F
:100550004FF480520021204600F028F9B0B900F095
:1005600051FA80466A460121204600F0DDF800F08D
:1005700049FAA0EB0800B8420AD901212046FFF74A
:10058000B9FE04F8445F0320667064E724E018E0D5
:1005900000988006E6D56A461F21204600F0C4F880
:1005A000D0B90098C10603D54FF40061E16000E0C6
:1005B000E660400701D5A66019E04FF48040A060D6
:1005C00015E0E068A168C00840EA510082B200214D
:1005D000204600F0EBF830B101212046FFF78AFEFB
:1005E00084F8445036E740F6FF70FFF715FF4946A0
:1005F0002046FFF77FFE84F8445000202BE70000E0
:10060000443802400438014000D3CEFEC0E1E4008B
:1006100040F1E9FD40787D0100796CFC005A6202EE
:10062000001F0AFA80F0FA02F0B587B004461421E0
:100630006846FFF721FE36492068884265D1354873
:100640000024016841F000710160016801F000714F
:100650000591016841F080610160016801F08061ED
:100660000591016841F000610160016801F00061DD
:100670000591016841F004010160016801F0040185
:100680000591016841F001010160016801F001017B
:100690000591016841F002010160016801F0020169
:1006A0000591016841F0400101600068022500F0F9
:1006B000400005903220CDE9000502AA03260B2751
:1006C00082E8D0006946144800F0ACF88620CDE9F5
:1006D000000502AA694682E8D000104800F0A2F89E
:1006E0002803CDE9000502AA694682E8D0000C483B
:1006F00000F098F84FF42050CDE9000502AA6946B1
:1007000082E8D000074800F08DF807B0F0BD000087
:1007100000800240303802400008024000000240E1
:1007200000040240001802402DE9F047044690F80A
:100730004400914682281DD0822084F8440022681B
:1007400010694FF6FF7500F01C03208A05EAC020EF
:1007500018434FF4F86303EA8111014321F00200CA
:1007600040F00105156100F04DF9064601274FF4F0
:10077000803810E00220BDE8F08700BF00F042F9A9
:10078000801B404505D304F8447F0020607003209F
:10079000F1E720680569E807F0D12068406981B277
:1007A000C9F8001084F844700020E4E72DE9F04116
:1007B000044690F8440042281ED0422084F84400A9
:1007C000236818694FF6FF7600F01C05208A06EAB8
:1007D000C02028434FF4F86505EA8111014390B227
:1007E00041F0030558612068056100F00BF90646E9
:1007F00001274FF4803810E00220BDE8F08100BFEF
:1008000000F000F9801B404505D304F8447F002028
:1008100060700320F1E720680569E807F0D184F8EB
:100820004470EAE72DE9F84F00224FF00108032554
:100830004FF00F0E0B6808FA02F42340A3426ED16A
:100840004E68012E05D0022E03D0112E01D0122E9B
:1008500012D186684FEA420C05FA0CF7BE43CF6806
:1008600007FA0CF7374387604668A6430C79C4F350
:100870000014944034434460C668570005FA07FCEE
:100880008C6826EA0C06BC403443C4604C68022CD9
:1008900001D0122C13D1D40800EB8404A346D4F861
:1008A000209054074FEAD46A0EFA0AF629EA06099C
:1008B0000E6906FA0AF646EA0906CBF820600468D3
:1008C0000E7924EA0C0406F00306BE4026430660B7
:1008D0004C68E4006FD53B4C266846F480462660A1
:1008E000246822F0030604F480440094364C344417
:1008F000A446D4F808489607360F0EFA06F7BC430C
:10090000324FB84201D100272EE0314FB84201D119
:10091000012729E02F4FB84202D1022724E04AE004
:100920002D4FB84201D103271EE02C4FB84201D110
:10093000042719E02A4FB84201D1052714E0294FB6
:10094000B84201D106270FE0274FB84201D107274F
:100950000AE0264FB84201D1082705E0244FB842EB
:1009600001D1092700E00A27B7402743CCF80878CF
:10097000204E34684F689C43FF0300D51C4334600D
:100980001C4E361D34684F689C43BF0300D51C4382
:100990003460184E083634684F689C43FF0200D517
:1009A0001C433460134E0C3634684F689C43BF02BE
:1009B00000D51C433460521C102AFFF43BAFBDE845
:1009C000F88F00004438024000300140000002402F
:1009D0000004024000080240000C024000100240E7
:1009E0000014024000180240001C02400020024097
:1009F00000240240003C01400AB1816170470904B3
:100A0000FBE70000014880687047000000000020FC
:100A1000024881680278114481607047000000201C
:100A20000B4810B5016841F400710160016841F4A0
:100A300080610160016841F480710160032000F071
:100A400061F8002000F006F800F024F8002010BD46
:100A5000003C024070B50D4D04464FF47A71287881
:100A6000B1FBF0F00A490968B1FBF0F000F0AEFB11
:100A700048B9102C07D200222146501E00F022F85F
:100A800000206C6070BD012070BD000000000020DF
:100A90000C0000200A4808B5016841F4804101605B
:100AA000006800F4804000900548001F016841F094
:100AB00080510160006800F08050009008BD000087
:100AC00044380240F0B40E4B1B680C46C3F30223BB
:100AD000C3F10705042D00D90425191D072901D2EA
:100AE000002300E0DB1E012606FA05F1491E214025
:100AF00099409E40761E16403143F0BC00F0FABE8D
:100B00000CED00E0064900F0070208684FF6FF030D
:100B1000184040EA0220034A104308607047000072
:100B20000CED00E00000FA052DE9F0418AB0040068
:100B300005D094F8BD032668002520B108E0012007
:100B40000AB0BDE8F08184F8BC53204600F05EF89E
:100B5000032084F8BD03F06BC00500D42561206834
:100B600000F088FE04F11001282288466846FFF74D
:100B70006AFB94E80F0000F055FD0226C8BB002177
:100B8000206800F09FFE002001270EE0C0EBC001AE
:100B900004EB810181F83D7001F83C0FC880CD70F5
:100BA0008D60CD60401CC0B24D6161688142EDD85E
:100BB000002011E0C0EBC00104EB810181F8FD5180
:100BC00081F8FC0181F8FF51C1F80452C1F80852C4
:100BD000401CC0B2C1F8105261688142EAD8282294
:100BE00041466846FFF72FFB94E80F0000F07CFDBC
:100BF00010B184F8BD63A2E784F8385084F8BD735F
:100C0000206800F065FD00209AE7000030B587B04D
:100C1000044614216846FFF72FFB2068B0F1A04F6F
:100C200030D119480024016841F0010101600068D9
:100C3000164D00F0010005904FF4E850009002209E
:100C4000CDE90104032003900A2004906946284658
:100C5000FFF7E8FD6815CDE90004694628460294CF
:100C6000FFF7E0FD0848001D016841F080010160C8
:100C700005481430016841F480410160006800F4C7
:100C80008040059007B030BD30380240000002407F
:100C90002DE9F0470E46050065D0DFF81481D8F83D
:100CA0000000F7B200F00F00B04207D288F80070E1
:100CB000D8F8000000F00F00B04254D128683D4C35
:100CC000810712D5400703D5206840F4E05020602A
:100CD0002878000703D5206840F460402060206831
:100CE000A96820F0F000084320602878C0072DD0C4
:100CF000304968680839012812D0022813D0032827
:100D000011D00968890700292DDA216821F0030133
:100D100001432160FFF776FE814641F2883A0EE0FA
:100D200009688903EFE709688901ECE7FFF76AFEC4
:100D3000A0EB0901514502D90320BDE8F0872068E6
:100D4000696800F00C00B0EB810FEFD1D8F800100B
:100D5000404601F00F01B14207D90770006800F06A
:100D60000F00B04201D00120E7E72878400705D501
:100D70002068E96820F4E0500843206028780007E4
:100D800006D52068296920F4604040EAC10020604F
:100D900000F03EF82168084AC1F30311515CC840D5
:100DA0000649086006480068FFF754FE0020C4E7C3
:100DB000003C024008380240741900080C00002072
:100DC0000400002001480068704700000C0000206B
:100DD0000448054900680968044AC1F38221515C4E
:100DE000C84070470C0000200838024084190008F1
:100DF0000448054900680968044AC1F34231515C5E
:100E0000C84070470C0000200838024084190008D0
:100E1000154810B5006810F00C02144813D04110AA
:100E2000042A0FD0082A0ED10F4C241F22682368F1
:100E300002F03F025B0207D52068C0F38810A0FBD8
:100E4000010106E0084610BD2168C1F38811A1FB2D
:100E500000010023FFF7C6F92168C1F30141491CD5
:100E60004900B0FBF1F010BD083802400024F40046
:100E70002DE9F84F040076D02078DFF838A3CE4D66
:100E8000C00749D0DAF800105046C1F381010129AA
:100E900008D00068C0F3810002280AD1281D00682C
:100EA000400206D52868800336D560680028E2D065
:100EB00032E06068B0F5803F10D0B0F5A02F286810
:100EC00010D020F480302860286820F4802028602A
:100ED0006068A0B1FFF796FD06460CE0286840F474
:100EE0008030F4E740F480202860F7E7FFF78AFDC0
:100EF000801B642873D828688003F7D50CE0FFF7BF
:100F000081FD064605E000BFFFF77CFD801B6428DD
:100F1000F0D828688003F7D42078DFF8A082800713
:100F20004FF000093ED5DAF80010504611F00C0FD2
:100F300009D00068C0F3810002280BD19D48001F32
:100F40000068400206D42868800715D5E0680128AB
:100F500009D111E0E068B8B10120C8F80000FFF73E
:100F600051FD064605E020E1FFF74CFD801B0228FD
:100F7000C0D828688007F7D52868216920F0F800D4
:100F800040EAC10028600DE0C8F80090FFF73AFD84
:100F9000064604E0FFF736FD801B02281FD82868AC
:100FA0008007F7D42078000722D5824E84486169F3
:100FB0006C3671B101210160FFF724FD074604E0A2
:100FC000FFF720FDC01B022809D830688007F7D53D
:100FD0000EE0C0F80090FFF715FD074605E082E03F
:100FE000FFF710FDC01B02287DD830688007F7D4BA
:100FF0002078400768D5DFF8BCB100270BF1380B2B
:10100000DBF80000C0000BD4DBF8001041F0805189
:10101000CBF80010DBF80000012700F080500090B2
:10102000684E3068C00510D4306840F4807030607D
:10103000FFF7E8FC009005E0FFF7E4FC0099401A98
:10104000022850D83068C005F6D55A4EA0686836D8
:1010500001280FD00528306810D020F00100306042
:10106000306820F004003060A068B8B1FFF7CAFC17
:1010700000900FE0306840F00100F4E740F0040019
:101080003060F7E7FFF7BEFC0099411A41F2883063
:10109000814266D830688007F4D50EE0FFF7B2FCD5
:1010A000009007E0FFF7AEFC0099411A41F288304A
:1010B000814256D830688007F4D42FB1DBF8001095
:1010C00021F08051CBF80010A069D0B3DAF80020ED
:1010D0005146C2F38102022A4AD00228484607D06C
:1010E000C8F8600000E03CE0FFF78CFC04463BE001
:1010F0004746C8F86000FFF785FC064605E000BFDC
:10110000FFF780FC801B02282BD828688001F7D4C9
:10111000D4E907010843A16A2B4A490802EB0141BF
:10112000626A41EA8211084394F82C1040EA016196
:101130002048001F016001203866FFF763FC044669
:1011400005E034E0FFF75EFC001B022809D82868A0
:101150008001F7D52BE000BFFFF754FC001B0228ED
:1011600002D90320BDE8F88F28688001F4D41EE07E
:101170000128F7D00868E26900F48001914214D197
:10118000226A00F03F0191420FD147F6C071626AB6
:101190000140914209D1A26A00F44031914204D148
:1011A000E16A00F07060884201D00120DAE7002097
:1011B000D8E70000083802400038024000004742EB
:1011C000800E4742007000400000FFFF10B5401E37
:1011D000B0F1807F01D3012010BD4FF0E0246061A9
:1011E0000F21601700F086FB0020A061072020611E
:1011F000002010BD70B5040004D094F8390000251B
:1012000010B106E0012070BD84F83850204600F08F
:1012100023F8242084F839002068C16821F40051A3
:10122000C160204600F06AF92068016921F490410C
:1012300001612068416921F02A0141612068C1688B
:1012400041F40051C160E563202084F8390084F83E
:101250003A00002070BD000010B586B0044614218D
:101260006846FFF709F814492068884221D11348DD
:10127000016841F480210160006800F4802005903D
:101280000E481038016841F00801016000686946A5
:1012900000F0080005904FF440700090022001908B
:1012A0000120029003200390072004900448FFF7D8
:1012B000B9FA06B010BD00000048004040380240B6
:1012C000000C0240FEE700001CB510480E498022C9
:1012D000016001214160002101828DF800108DF82C
:1012E0000120E1228DF802208DF804108DF8031002
:1012F0008DF805106A46C0E90521C1614FF400016F
:101300000162FFF79BF81CBD008002401000002026
:101310002DE9F04387B014216846FEF7ADFF3B4846
:101320000024016841F004010160016801F004013A
:101330000591016841F080010160016801F08001C0
:101340000591016841F001010160016801F00101AE
:101350000591016841F002010160016801F002019C
:101360000591016841F008010160016801F0080180
:101370000591016841F0400101600068244F00F0D0
:1013800040004FF481450590002229463846FFF77A
:1013900033FBDFF88080002240214046FFF72CFB22
:1013A000DFF874907E15002231464846FFF724FB93
:1013B000300100901948CDE9010469464846FFF71D
:1013C00031FA00950125CDE9015469463846039468
:1013D000FFF728FA40200090CDE9015469464046C5
:1013E0000394FFF71FFA8020CDE9000469464046C8
:1013F0000294FFF717FA0096CDE901546946484672
:101400000394FFF70FFA07B0BDE8F08330380240CD
:1014100000040240001802400008024000001110C1
:1014200009484FF0A04102220160042141600021DF
:10143000C0E9032182610122C0E907214162C0E9BC
:101440000B21FFF771BB000098000020FEE77047FA
:1014500070477047FFF7DCBA30B593B0302168466B
:10146000FEF70AFF14210CA8FEF706FF1A48002514
:10147000016841F080510160006800F080501190D7
:101480001648016841F4404101600068022400F4FC
:1014900040401190012000904FF4A0200190600581
:1014A000CDE9064004200890A820CDE909040720D2
:1014B0000B906846FFF7DCFC0CA90F2081E8310097
:1014C0004FF4A0500F90E002109005210CA8FFF7F8
:1014D000DFFB13B030BD0000403802400070004018
:1014E0000548016841F47001016003494FF0006054
:1014F000803908607047000088ED00E02DE9F04178
:10150000044600680169E26821F440511143016119
:101510002169A068E26908436169114308432168B1
:10152000CA6849F20C639A430243CA602068416961
:10153000A26921F4407111434161E06919276425D2
:101540003226B0F5004F354A354920684FF0000883
:1015500006D0884201D0904236D1FFF749FC35E0F1
:10156000884201D0904202D1FFF742FC01E0FFF730
:101570002FFC61684A18A0FB070148EB0803FEF73F
:1015800031FE0146B0FBF5F00201B1FBF5F06FF062
:101590001803584301EB800006EBC000B0FBF5F0E8
:1015A00000F0F80002EB4002B1FBF5F0584301EB0C
:1015B000800006EBC000B0FBF5F000F007002168EA
:1015C00010448860BDE8F081FFF702FC61688B0F72
:1015D0008A00A0FB0701FEF705FE0146B0FBF5F00F
:1015E0006FF01802504301EB800006EB0010B0FBD7
:1015F000F5F000F0F002B1FBF5F002EB0012B1FBE8
:10160000F5F06FF01803584301EB800006EB001073
:10161000B0FBF5F000F00F00D1E70000001401402E
:101620000010014070B5044606990A9E049D0D986D
:10163000012916D0E06840F04000E060204600F04C
:101640002BF8A16B1EB321F48031A163012D07D1CA
:10165000A16841F00601A160A16841F02001A160EC
:1016600070BDA16B21F48031A163E168094A11408A
:10167000E160E16821F44011E160012803D1E068F4
:1016800040F48010E060204600F006F8DEE741F408
:101690008031DAE7BFFFBDFF01220C4902E0521C96
:1016A0008A420BD80369002BF9DA026942F0010281
:1016B0000261012204E0521C8A4201D903207047D2
:1016C0000369DB07F7D1002070470000400D0300DD
:1016D00010B5D0F8041841F00201C0F80418032036
:1016E000FEF79AFE002010BD2DE9F04F0025DDE940
:1016F0000BCB0E460446DDF84090099F284629464C
:1017000004EB8002C2F80411401C0F28F8D3B9F191
:10171000000F204618D0006820F400122260A06B51
:1017200040F40022A26308468846C4F8000ED4F8AC
:1017300000182046C4F80018BCF1010F10D0D0F8F2
:10174000001841F0030110E0806B40F40012A26326
:10175000A06B20F40022A263A06B20F48022E1E7BA
:10176000D0F800180BB141F00101C0F800181021A9
:1017700000F096F800B10125204600F081F800B194
:1017800001254046C4F81088C4F81488C4F81C88A1
:1017900000214FF000634FF090484FF67F3A14E07D
:1017A00004EB4112D2F800C9BCF1000F06DA11B106
:1017B000C2F8008904E0C4F8003901E0C2F8000969
:1017C000C2F81009C2F808A9491C8E42E8D80021C5
:1017D00015E000BF04EB4112D2F800CBBCF1000FC2
:1017E00006DA11B1C2F8008B04E0C4F8003B01E056
:1017F000C2F8000BC2F8100BC2F808AB491C8E42AD
:10180000E8D8D4F8101821F480722146C4F81028C2
:10181000012F08D1134AC1F83028D1F83018124AE4
:101820001143C4F83018A0616FF0804060611FB9A7
:10183000A06940F01000A061A0690C490843A061B4
:10184000BBF1000F03D0A06940F00800A061B9F11E
:10185000010F03D1A06906490843A0612846BDE8ED
:10186000F08F0000000180000300010000383C8080
:1018700004000040816821F0010181600020704770
:10188000002110220261054A491C914201D903201E
:1018900070470369DB06F7D400207047400D030052
:1018A0000022202343EA811101610549521C8A422A
:1018B00001D90320704703699B06F7D400207047C5
:1018C000400D030010B5C26822F0C042C260012979
:1018D00002D029B1012010BDC16841F0005102E0E1
:1018E000C16841F08041C1603220FEF795FD0020C3
:1018F00010BDFEE70907090E002804DB00F1E02017
:1019000080F80014704700F00F0000F1E02080F82C
:10191000141D704702E008C8121F08C1002AFAD13E
:1019200070477047002001E001C1121F002AFBD15F
:1019300070470000FFF774F8FFF78EFDFFF7E8FC33
:10194000FFF7C2FC0A4809490C2201604FF4E1315B
:10195000416000218160C160C0E904128161C16100
:10196000FFF748FCFFF75CFDFEE700000048004081
:1019700058000020000000000000000001020304E5
:10198000060708090000000001020304AC19000862
:10199000000000201000000014190008BC19000805
:1019A0001000002090080000241900080100000029
:0C19B00010000000000000000024F40003
:04000005080001AD41
:00000001FF
